{
  "_format": "hh-sol-artifact-1",
  "contractName": "MedicalSystem",
  "sourceName": "contracts/MedicalSystem.sol",
  "abi": [
    {
      "anonymous": false,
      "inputs": [
        {
          "indexed": true,
          "internalType": "uint256",
          "name": "recordId",
          "type": "uint256"
        },
        {
          "indexed": false,
          "internalType": "address",
          "name": "patient",
          "type": "address"
        },
        {
          "indexed": false,
          "internalType": "string",
          "name": "fileUrl",
          "type": "string"
        },
        {
          "indexed": false,
          "internalType": "string",
          "name": "fileHash",
          "type": "string"
        },
        {
          "indexed": false,
          "internalType": "uint256",
          "name": "timestamp",
          "type": "uint256"
        }
      ],
      "name": "AttachmentAdded",
      "type": "event"
    },
    {
      "anonymous": false,
      "inputs": [
        {
          "indexed": true,
          "internalType": "address",
          "name": "patient",
          "type": "address"
        },
        {
          "indexed": true,
          "internalType": "address",
          "name": "doctor",
          "type": "address"
        }
      ],
      "name": "DoctorAuthorized",
      "type": "event"
    },
    {
      "anonymous": false,
      "inputs": [
        {
          "indexed": true,
          "internalType": "address",
          "name": "doctorAddress",
          "type": "address"
        },
        {
          "indexed": false,
          "internalType": "string",
          "name": "name",
          "type": "string"
        }
      ],
      "name": "DoctorRegistered",
      "type": "event"
    },
    {
      "anonymous": false,
      "inputs": [
        {
          "indexed": true,
          "internalType": "uint256",
          "name": "recordId",
          "type": "uint256"
        },
        {
          "indexed": false,
          "internalType": "address",
          "name": "patient",
          "type": "address"
        },
        {
          "indexed": false,
          "internalType": "address",
          "name": "doctor",
          "type": "address"
        },
        {
          "indexed": false,
          "internalType": "string",
          "name": "description",
          "type": "string"
        }
      ],
      "name": "MedicalRecordCreated",
      "type": "event"
    },
    {
      "anonymous": false,
      "inputs": [
        {
          "indexed": true,
          "internalType": "uint256",
          "name": "recordId",
          "type": "uint256"
        },
        {
          "indexed": false,
          "internalType": "address",
          "name": "patient",
          "type": "address"
        },
        {
          "indexed": false,
          "internalType": "address",
          "name": "doctor",
          "type": "address"
        },
        {
          "indexed": false,
          "internalType": "string",
          "name": "newDescription",
          "type": "string"
        }
      ],
      "name": "MedicalRecordUpdated",
      "type": "event"
    },
    {
      "anonymous": false,
      "inputs": [
        {
          "indexed": true,
          "internalType": "address",
          "name": "patientAddress",
          "type": "address"
        },
        {
          "indexed": false,
          "internalType": "string",
          "name": "name",
          "type": "string"
        },
        {
          "indexed": false,
          "internalType": "enum MedicalSystem.Gender",
          "name": "gender",
          "type": "uint8"
        },
        {
          "indexed": false,
          "internalType": "uint256",
          "name": "birthDate",
          "type": "uint256"
        }
      ],
      "name": "PatientRegistered",
      "type": "event"
    },
    {
      "inputs": [
        {
          "internalType": "uint256",
          "name": "_recordIndex",
          "type": "uint256"
        },
        {
          "internalType": "string",
          "name": "_fileUrl",
          "type": "string"
        },
        {
          "internalType": "string",
          "name": "_fileHash",
          "type": "string"
        }
      ],
      "name": "attachFileToRecord",
      "outputs": [],
      "stateMutability": "nonpayable",
      "type": "function"
    },
    {
      "inputs": [
        {
          "internalType": "address",
          "name": "_doctor",
          "type": "address"
        }
      ],
      "name": "authorizeDoctor",
      "outputs": [],
      "stateMutability": "nonpayable",
      "type": "function"
    },
    {
      "inputs": [
        {
          "internalType": "address",
          "name": "_patient",
          "type": "address"
        },
        {
          "internalType": "string",
          "name": "_description",
          "type": "string"
        }
      ],
      "name": "createMedicalRecord",
      "outputs": [],
      "stateMutability": "nonpayable",
      "type": "function"
    },
    {
      "inputs": [
        {
          "internalType": "address",
          "name": "",
          "type": "address"
        }
      ],
      "name": "doctors",
      "outputs": [
        {
          "internalType": "string",
          "name": "name",
          "type": "string"
        }
      ],
      "stateMutability": "view",
      "type": "function"
    },
    {
      "inputs": [],
      "name": "getPatients",
      "outputs": [
        {
          "components": [
            {
              "internalType": "string",
              "name": "name",
              "type": "string"
            },
            {
              "internalType": "enum MedicalSystem.Gender",
              "name": "gender",
              "type": "uint8"
            },
            {
              "internalType": "uint256",
              "name": "birthDate",
              "type": "uint256"
            },
            {
              "components": [
                {
                  "internalType": "uint256",
                  "name": "recordId",
                  "type": "uint256"
                },
                {
                  "internalType": "uint256",
                  "name": "timestamp",
                  "type": "uint256"
                },
                {
                  "internalType": "address",
                  "name": "createdBy",
                  "type": "address"
                },
                {
                  "internalType": "string",
                  "name": "description",
                  "type": "string"
                }
              ],
              "internalType": "struct MedicalSystem.MedicalRecord[]",
              "name": "records",
              "type": "tuple[]"
            },
            {
              "internalType": "address[]",
              "name": "authorizedDoctors",
              "type": "address[]"
            }
          ],
          "internalType": "struct MedicalSystem.Patient[]",
          "name": "",
          "type": "tuple[]"
        }
      ],
      "stateMutability": "view",
      "type": "function"
    },
    {
      "inputs": [
        {
          "internalType": "address",
          "name": "_user",
          "type": "address"
        }
      ],
      "name": "getUserRole",
      "outputs": [
        {
          "internalType": "string",
          "name": "",
          "type": "string"
        }
      ],
      "stateMutability": "view",
      "type": "function"
    },
    {
      "inputs": [
        {
          "internalType": "address",
          "name": "_patient",
          "type": "address"
        },
        {
          "internalType": "address",
          "name": "_doctor",
          "type": "address"
        }
      ],
      "name": "isDoctorAuthorized",
      "outputs": [
        {
          "internalType": "bool",
          "name": "",
          "type": "bool"
        }
      ],
      "stateMutability": "view",
      "type": "function"
    },
    {
      "inputs": [
        {
          "internalType": "address",
          "name": "_user",
          "type": "address"
        }
      ],
      "name": "isRegisteredDoctor",
      "outputs": [
        {
          "internalType": "bool",
          "name": "",
          "type": "bool"
        }
      ],
      "stateMutability": "view",
      "type": "function"
    },
    {
      "inputs": [
        {
          "internalType": "address",
          "name": "_user",
          "type": "address"
        }
      ],
      "name": "isRegisteredPatient",
      "outputs": [
        {
          "internalType": "bool",
          "name": "",
          "type": "bool"
        }
      ],
      "stateMutability": "view",
      "type": "function"
    },
    {
      "inputs": [
        {
          "internalType": "address",
          "name": "",
          "type": "address"
        }
      ],
      "name": "patients",
      "outputs": [
        {
          "internalType": "string",
          "name": "name",
          "type": "string"
        },
        {
          "internalType": "enum MedicalSystem.Gender",
          "name": "gender",
          "type": "uint8"
        },
        {
          "internalType": "uint256",
          "name": "birthDate",
          "type": "uint256"
        }
      ],
      "stateMutability": "view",
      "type": "function"
    },
    {
      "inputs": [],
      "name": "recordId",
      "outputs": [
        {
          "internalType": "uint256",
          "name": "",
          "type": "uint256"
        }
      ],
      "stateMutability": "view",
      "type": "function"
    },
    {
      "inputs": [
        {
          "internalType": "string",
          "name": "_name",
          "type": "string"
        }
      ],
      "name": "registerDoctor",
      "outputs": [],
      "stateMutability": "nonpayable",
      "type": "function"
    },
    {
      "inputs": [
        {
          "internalType": "string",
          "name": "_name",
          "type": "string"
        },
        {
          "internalType": "uint256",
          "name": "_birthDate",
          "type": "uint256"
        },
        {
          "internalType": "enum MedicalSystem.Gender",
          "name": "_gender",
          "type": "uint8"
        }
      ],
      "name": "registerPatient",
      "outputs": [],
      "stateMutability": "nonpayable",
      "type": "function"
    },
    {
      "inputs": [
        {
          "internalType": "address",
          "name": "_patient",
          "type": "address"
        },
        {
          "internalType": "uint256",
          "name": "_recordIndex",
          "type": "uint256"
        },
        {
          "internalType": "string",
          "name": "_newDescription",
          "type": "string"
        }
      ],
      "name": "updateMedicalRecord",
      "outputs": [],
      "stateMutability": "nonpayable",
      "type": "function"
    },
    {
      "inputs": [
        {
          "internalType": "address",
          "name": "_patient",
          "type": "address"
        },
        {
          "internalType": "uint256",
          "name": "_recordIndex",
          "type": "uint256"
        }
      ],
      "name": "viewAttachedFiles",
      "outputs": [
        {
          "components": [
            {
              "internalType": "string",
              "name": "fileUrl",
              "type": "string"
            },
            {
              "internalType": "string",
              "name": "fileHash",
              "type": "string"
            },
            {
              "internalType": "uint256",
              "name": "timestamp",
              "type": "uint256"
            }
          ],
          "internalType": "struct MedicalSystem.Attachment[]",
          "name": "",
          "type": "tuple[]"
        }
      ],
      "stateMutability": "view",
      "type": "function"
    },
    {
      "inputs": [
        {
          "internalType": "address",
          "name": "_patient",
          "type": "address"
        }
      ],
      "name": "viewMedicalRecords",
      "outputs": [
        {
          "components": [
            {
              "internalType": "uint256",
              "name": "recordId",
              "type": "uint256"
            },
            {
              "internalType": "uint256",
              "name": "timestamp",
              "type": "uint256"
            },
            {
              "internalType": "address",
              "name": "createdBy",
              "type": "address"
            },
            {
              "internalType": "string",
              "name": "description",
              "type": "string"
            }
          ],
          "internalType": "struct MedicalSystem.MedicalRecord[]",
          "name": "",
          "type": "tuple[]"
        }
      ],
      "stateMutability": "view",
      "type": "function"
    }
  ],
  "bytecode": "0x6080604052348015600f57600080fd5b506133e28061001f6000396000f3fe608060405234801561001057600080fd5b50600436106100ff5760003560e01c80635c6612e71161009757806397bff3381161006657806397bff338146102d0578063a9583c2214610300578063c4b1b20414610330578063f7dfe22b1461034c576100ff565b80635c6612e71461022457806379a94bd21461025457806382b41392146102845780638f09ab5b146102b4576100ff565b80633bdbde6e116100d35780633bdbde6e146101a05780633c4f7a9d146101bc57806358c9202c146101ec5780635b52184814610208576100ff565b8062d0e7e3146101045780630869cfbc1461012057806312ad1c37146101525780632782085114610170575b600080fd5b61011e60048036038101906101199190612046565b61036a565b005b61013a600480360381019061013591906120b5565b6105bf565b604051610149939291906121e7565b60405180910390f35b61015a61067e565b60405161016791906125b6565b60405180910390f35b61018a600480360381019061018591906120b5565b610a27565b60405161019791906125d8565b60405180910390f35b6101ba60048036038101906101b5919061261f565b610afd565b005b6101d660048036038101906101d191906120b5565b610c70565b6040516101e391906126a9565b60405180910390f35b610206600480360381019061020191906120b5565b610cca565b005b610222600480360381019061021d91906126c4565b610fde565b005b61023e6004803603810190610239919061274f565b6111ec565b60405161024b91906128a8565b60405180910390f35b61026e600480360381019061026991906128ca565b6114fe565b60405161027b91906126a9565b60405180910390f35b61029e600480360381019061029991906120b5565b611648565b6040516102ab9190612990565b60405180910390f35b6102ce60048036038101906102c991906129b2565b611864565b005b6102ea60048036038101906102e591906120b5565b61199c565b6040516102f791906126a9565b60405180910390f35b61031a600480360381019061031591906120b5565b6119f6565b60405161032791906125d8565b60405180910390f35b61034a600480360381019061034591906129fb565b611a9c565b005b610354611c5d565b6040516103619190612a57565b60405180910390f35b8261037581336114fe565b6103b4576040517f08c379a00000000000000000000000000000000000000000000000000000000081526004016103ab90612ae4565b60405180910390fd5b600260008573ffffffffffffffffffffffffffffffffffffffff1673ffffffffffffffffffffffffffffffffffffffff16815260200190815260200160002060030180549050831061043b576040517f08c379a000000000000000000000000000000000000000000000000000000000815260040161043290612b50565b60405180910390fd5b81600260008673ffffffffffffffffffffffffffffffffffffffff1673ffffffffffffffffffffffffffffffffffffffff16815260200190815260200160002060030184815481106104905761048f612b70565b5b906000526020600020906004020160030190816104ad9190612dab565b5042600260008673ffffffffffffffffffffffffffffffffffffffff1673ffffffffffffffffffffffffffffffffffffffff168152602001908152602001600020600301848154811061050357610502612b70565b5b906000526020600020906004020160010181905550600260008573ffffffffffffffffffffffffffffffffffffffff1673ffffffffffffffffffffffffffffffffffffffff168152602001908152602001600020600301838154811061056c5761056b612b70565b5b9060005260206000209060040201600001547faf0fc8993d08cfe50317ef6eefea5cda96e16e3ff68c3f1e9535d37e2190b3808533856040516105b193929190612e8c565b60405180910390a250505050565b60026020528060005260406000206000915090508060000180546105e290612bce565b80601f016020809104026020016040519081016040528092919081815260200182805461060e90612bce565b801561065b5780601f106106305761010080835404028352916020019161065b565b820191906000526020600020905b81548152906001019060200180831161063e57829003601f168201915b5050505050908060010160009054906101000a900460ff16908060020154905083565b60603361068a8161199c565b6106c9576040517f08c379a00000000000000000000000000000000000000000000000000000000081526004016106c090612f16565b60405180910390fd5b600160003373ffffffffffffffffffffffffffffffffffffffff1673ffffffffffffffffffffffffffffffffffffffff168152602001908152602001600020600101805480602002602001604051908101604052809291908181526020016000905b82821015610a1d57838290600052602060002090600502016040518060a001604052908160008201805461075e90612bce565b80601f016020809104026020016040519081016040528092919081815260200182805461078a90612bce565b80156107d75780601f106107ac576101008083540402835291602001916107d7565b820191906000526020600020905b8154815290600101906020018083116107ba57829003601f168201915b505050505081526020016001820160009054906101000a900460ff16600281111561080557610804612161565b5b600281111561081757610816612161565b5b81526020016002820154815260200160038201805480602002602001604051908101604052809291908181526020016000905b82821015610978578382906000526020600020906004020160405180608001604052908160008201548152602001600182015481526020016002820160009054906101000a900473ffffffffffffffffffffffffffffffffffffffff1673ffffffffffffffffffffffffffffffffffffffff1673ffffffffffffffffffffffffffffffffffffffff1681526020016003820180546108e790612bce565b80601f016020809104026020016040519081016040528092919081815260200182805461091390612bce565b80156109605780601f1061093557610100808354040283529160200191610960565b820191906000526020600020905b81548152906001019060200180831161094357829003601f168201915b5050505050815250508152602001906001019061084a565b50505050815260200160048201805480602002602001604051908101604052809291908181526020018280548015610a0557602002820191906000526020600020905b8160009054906101000a900473ffffffffffffffffffffffffffffffffffffffff1673ffffffffffffffffffffffffffffffffffffffff16815260200190600101908083116109bb575b5050505050815250508152602001906001019061072b565b5050505091505090565b6060610a328261199c565b15610a74576040518060400160405280600681526020017f446f63746f7200000000000000000000000000000000000000000000000000008152509050610af8565b610a7d82610c70565b15610abf576040518060400160405280600781526020017f50617469656e74000000000000000000000000000000000000000000000000008152509050610af8565b6040518060400160405280600c81526020017f556e72656769737465726564000000000000000000000000000000000000000081525090505b919050565b6000600260003373ffffffffffffffffffffffffffffffffffffffff1673ffffffffffffffffffffffffffffffffffffffff1681526020019081526020016000206000018054610b4c90612bce565b905014610b8e576040517f08c379a0000000000000000000000000000000000000000000000000000000008152600401610b8590612f82565b60405180910390fd5b6000600260003373ffffffffffffffffffffffffffffffffffffffff1673ffffffffffffffffffffffffffffffffffffffff168152602001908152602001600020905083816000019081610be29190612dab565b50818160010160006101000a81548160ff02191690836002811115610c0a57610c09612161565b5b02179055508281600201819055503373ffffffffffffffffffffffffffffffffffffffff167fd852f2c27b2ba49c49adc1d0162d8cf893b7271ecc1cedd07408a24f46152023858486604051610c62939291906121e7565b60405180910390a250505050565b600080600260008473ffffffffffffffffffffffffffffffffffffffff1673ffffffffffffffffffffffffffffffffffffffff1681526020019081526020016000206000018054610cc090612bce565b9050119050919050565b33610cd481610c70565b610d13576040517f08c379a0000000000000000000000000000000000000000000000000000000008152600401610d0a90612fee565b60405180910390fd5b81610d1d8161199c565b610d5c576040517f08c379a0000000000000000000000000000000000000000000000000000000008152600401610d5390612f16565b60405180910390fd5b610d6633846114fe565b15610da6576040517f08c379a0000000000000000000000000000000000000000000000000000000008152600401610d9d90613080565b60405180910390fd5b600260003373ffffffffffffffffffffffffffffffffffffffff1673ffffffffffffffffffffffffffffffffffffffff168152602001908152602001600020600401839080600181540180825580915050600190039060005260206000200160009091909190916101000a81548173ffffffffffffffffffffffffffffffffffffffff021916908373ffffffffffffffffffffffffffffffffffffffff160217905550600160008473ffffffffffffffffffffffffffffffffffffffff1673ffffffffffffffffffffffffffffffffffffffff168152602001908152602001600020600101600260003373ffffffffffffffffffffffffffffffffffffffff1673ffffffffffffffffffffffffffffffffffffffff168152602001908152602001600020908060018154018082558091505060019003906000526020600020906005020160009091909190915060008201816000019081610f0791906130b6565b506001820160009054906101000a900460ff168160010160006101000a81548160ff02191690836002811115610f4057610f3f612161565b5b0217905550600282015481600201556003820181600301908054610f65929190611c63565b506004820181600401908054610f7c929190611d4b565b5050508273ffffffffffffffffffffffffffffffffffffffff163373ffffffffffffffffffffffffffffffffffffffff167fc3255872421c54a1c27c56c4517b663cfbf7024ebaf3b96a1b3edd4f1a41c39e60405160405180910390a3505050565b33610fe881610c70565b611027576040517f08c379a000000000000000000000000000000000000000000000000000000000815260040161101e90612fee565b60405180910390fd5b600260003373ffffffffffffffffffffffffffffffffffffffff1673ffffffffffffffffffffffffffffffffffffffff1681526020019081526020016000206003018054905084106110ae576040517f08c379a00000000000000000000000000000000000000000000000000000000081526004016110a5906131ea565b60405180910390fd5b6000600260003373ffffffffffffffffffffffffffffffffffffffff1673ffffffffffffffffffffffffffffffffffffffff168152602001908152602001600020600301858154811061110457611103612b70565b5b906000526020600020906004020160000154905060036000828152602001908152602001600020604051806060016040528086815260200185815260200142815250908060018154018082558091505060019003906000526020600020906003020160009091909190915060008201518160000190816111849190612dab565b50602082015181600101908161119a9190612dab565b50604082015181600201555050807f7f8ec66df42b873b1d72f9607088a6a21d44eadff9eac2093f40ab10f6511d0f338686426040516111dd949392919061320a565b60405180910390a25050505050565b60606111f883336114fe565b8061122e57508273ffffffffffffffffffffffffffffffffffffffff163373ffffffffffffffffffffffffffffffffffffffff16145b61126d576040517f08c379a0000000000000000000000000000000000000000000000000000000008152600401611264906132a9565b60405180910390fd5b600260008473ffffffffffffffffffffffffffffffffffffffff1673ffffffffffffffffffffffffffffffffffffffff1681526020019081526020016000206003018054905082106112f4576040517f08c379a00000000000000000000000000000000000000000000000000000000081526004016112eb906131ea565b60405180910390fd5b6000600260008573ffffffffffffffffffffffffffffffffffffffff1673ffffffffffffffffffffffffffffffffffffffff168152602001908152602001600020600301838154811061134a57611349612b70565b5b906000526020600020906004020160000154905060036000828152602001908152602001600020805480602002602001604051908101604052809291908181526020016000905b828210156114f157838290600052602060002090600302016040518060600160405290816000820180546113c490612bce565b80601f01602080910402602001604051908101604052809291908181526020018280546113f090612bce565b801561143d5780601f106114125761010080835404028352916020019161143d565b820191906000526020600020905b81548152906001019060200180831161142057829003601f168201915b5050505050815260200160018201805461145690612bce565b80601f016020809104026020016040519081016040528092919081815260200182805461148290612bce565b80156114cf5780601f106114a4576101008083540402835291602001916114cf565b820191906000526020600020905b8154815290600101906020018083116114b257829003601f168201915b5050505050815260200160028201548152505081526020019060010190611391565b5050505091505092915050565b600080600260008573ffffffffffffffffffffffffffffffffffffffff1673ffffffffffffffffffffffffffffffffffffffff1681526020019081526020016000206004018054806020026020016040519081016040528092919081815260200182805480156115c357602002820191906000526020600020905b8160009054906101000a900473ffffffffffffffffffffffffffffffffffffffff1673ffffffffffffffffffffffffffffffffffffffff1681526020019060010190808311611579575b5050505050905060005b815181101561163b578373ffffffffffffffffffffffffffffffffffffffff16828281518110611600576115ff612b70565b5b602002602001015173ffffffffffffffffffffffffffffffffffffffff160361162e57600192505050611642565b80806001019150506115cd565b5060009150505b92915050565b606061165482336114fe565b8061168a57508173ffffffffffffffffffffffffffffffffffffffff163373ffffffffffffffffffffffffffffffffffffffff16145b6116c9576040517f08c379a00000000000000000000000000000000000000000000000000000000081526004016116c0906132a9565b60405180910390fd5b600260008373ffffffffffffffffffffffffffffffffffffffff1673ffffffffffffffffffffffffffffffffffffffff168152602001908152602001600020600301805480602002602001604051908101604052809291908181526020016000905b82821015611859578382906000526020600020906004020160405180608001604052908160008201548152602001600182015481526020016002820160009054906101000a900473ffffffffffffffffffffffffffffffffffffffff1673ffffffffffffffffffffffffffffffffffffffff1673ffffffffffffffffffffffffffffffffffffffff1681526020016003820180546117c890612bce565b80601f01602080910402602001604051908101604052809291908181526020018280546117f490612bce565b80156118415780601f1061181657610100808354040283529160200191611841565b820191906000526020600020905b81548152906001019060200180831161182457829003601f168201915b5050505050815250508152602001906001019061172b565b505050509050919050565b6000600160003373ffffffffffffffffffffffffffffffffffffffff1673ffffffffffffffffffffffffffffffffffffffff16815260200190815260200160002060000180546118b390612bce565b9050146118f5576040517f08c379a00000000000000000000000000000000000000000000000000000000081526004016118ec90613315565b60405180910390fd5b6000600160003373ffffffffffffffffffffffffffffffffffffffff1673ffffffffffffffffffffffffffffffffffffffff1681526020019081526020016000209050818160000190816119499190612dab565b503373ffffffffffffffffffffffffffffffffffffffff167f20481b8112b5bf4734f45a473c373db9df6a79ce946cdc0e7dbc22b4f7d7f9868360405161199091906125d8565b60405180910390a25050565b600080600160008473ffffffffffffffffffffffffffffffffffffffff1673ffffffffffffffffffffffffffffffffffffffff16815260200190815260200160002060000180546119ec90612bce565b9050119050919050565b6001602052806000526040600020600091509050806000018054611a1990612bce565b80601f0160208091040260200160405190810160405280929190818152602001828054611a4590612bce565b8015611a925780601f10611a6757610100808354040283529160200191611a92565b820191906000526020600020905b815481529060010190602001808311611a7557829003601f168201915b5050505050905081565b81611aa781336114fe565b611ae6576040517f08c379a0000000000000000000000000000000000000000000000000000000008152600401611add90612ae4565b60405180910390fd5b600080815480929190611af890613364565b91905055506000604051806080016040528060005481526020014281526020013373ffffffffffffffffffffffffffffffffffffffff168152602001848152509050600260008573ffffffffffffffffffffffffffffffffffffffff1673ffffffffffffffffffffffffffffffffffffffff168152602001908152602001600020600301819080600181540180825580915050600190039060005260206000209060040201600090919091909150600082015181600001556020820151816001015560408201518160020160006101000a81548173ffffffffffffffffffffffffffffffffffffffff021916908373ffffffffffffffffffffffffffffffffffffffff1602179055506060820151816003019081611c169190612dab565b5050506000547f9b756515544943d6b944bb175962ab796ea991494d6293e2f06c9424f38807d8853386604051611c4f93929190612e8c565b60405180910390a250505050565b60005481565b828054828255906000526020600020906004028101928215611d3a5760005260206000209160040282015b82811115611d3957828260008201548160000155600182015481600101556002820160009054906101000a900473ffffffffffffffffffffffffffffffffffffffff168160020160006101000a81548173ffffffffffffffffffffffffffffffffffffffff021916908373ffffffffffffffffffffffffffffffffffffffff16021790555060038201816003019081611d2791906130b6565b50505091600401919060040190611c8e565b5b509050611d479190611d9d565b5090565b828054828255906000526020600020908101928215611d8c5760005260206000209182015b82811115611d8b578254825591600101919060010190611d70565b5b509050611d999190611dfb565b5090565b5b80821115611df75760008082016000905560018201600090556002820160006101000a81549073ffffffffffffffffffffffffffffffffffffffff0219169055600382016000611dee9190611e18565b50600401611d9e565b5090565b5b80821115611e14576000816000905550600101611dfc565b5090565b508054611e2490612bce565b6000825580601f10611e365750611e55565b601f016020900490600052602060002090810190611e549190611dfb565b5b50565b6000604051905090565b600080fd5b600080fd5b600073ffffffffffffffffffffffffffffffffffffffff82169050919050565b6000611e9782611e6c565b9050919050565b611ea781611e8c565b8114611eb257600080fd5b50565b600081359050611ec481611e9e565b92915050565b6000819050919050565b611edd81611eca565b8114611ee857600080fd5b50565b600081359050611efa81611ed4565b92915050565b600080fd5b600080fd5b6000601f19601f8301169050919050565b7f4e487b7100000000000000000000000000000000000000000000000000000000600052604160045260246000fd5b611f5382611f0a565b810181811067ffffffffffffffff82111715611f7257611f71611f1b565b5b80604052505050565b6000611f85611e58565b9050611f918282611f4a565b919050565b600067ffffffffffffffff821115611fb157611fb0611f1b565b5b611fba82611f0a565b9050602081019050919050565b82818337600083830152505050565b6000611fe9611fe484611f96565b611f7b565b90508281526020810184848401111561200557612004611f05565b5b612010848285611fc7565b509392505050565b600082601f83011261202d5761202c611f00565b5b813561203d848260208601611fd6565b91505092915050565b60008060006060848603121561205f5761205e611e62565b5b600061206d86828701611eb5565b935050602061207e86828701611eeb565b925050604084013567ffffffffffffffff81111561209f5761209e611e67565b5b6120ab86828701612018565b9150509250925092565b6000602082840312156120cb576120ca611e62565b5b60006120d984828501611eb5565b91505092915050565b600081519050919050565b600082825260208201905092915050565b60005b8381101561211c578082015181840152602081019050612101565b60008484015250505050565b6000612133826120e2565b61213d81856120ed565b935061214d8185602086016120fe565b61215681611f0a565b840191505092915050565b7f4e487b7100000000000000000000000000000000000000000000000000000000600052602160045260246000fd5b600381106121a1576121a0612161565b5b50565b60008190506121b282612190565b919050565b60006121c2826121a4565b9050919050565b6121d2816121b7565b82525050565b6121e181611eca565b82525050565b600060608201905081810360008301526122018186612128565b905061221060208301856121c9565b61221d60408301846121d8565b949350505050565b600081519050919050565b600082825260208201905092915050565b6000819050602082019050919050565b600082825260208201905092915050565b600061226d826120e2565b6122778185612251565b93506122878185602086016120fe565b61229081611f0a565b840191505092915050565b6122a4816121b7565b82525050565b6122b381611eca565b82525050565b600081519050919050565b600082825260208201905092915050565b6000819050602082019050919050565b6122ee81611e8c565b82525050565b600060808301600083015161230c60008601826122aa565b50602083015161231f60208601826122aa565b50604083015161233260408601826122e5565b506060830151848203606086015261234a8282612262565b9150508091505092915050565b600061236383836122f4565b905092915050565b6000602082019050919050565b6000612383826122b9565b61238d81856122c4565b93508360208202850161239f856122d5565b8060005b858110156123db57848403895281516123bc8582612357565b94506123c78361236b565b925060208a019950506001810190506123a3565b50829750879550505050505092915050565b600081519050919050565b600082825260208201905092915050565b6000819050602082019050919050565b600061242583836122e5565b60208301905092915050565b6000602082019050919050565b6000612449826123ed565b61245381856123f8565b935061245e83612409565b8060005b8381101561248f5781516124768882612419565b975061248183612431565b925050600181019050612462565b5085935050505092915050565b600060a08301600083015184820360008601526124b98282612262565b91505060208301516124ce602086018261229b565b5060408301516124e160408601826122aa565b50606083015184820360608601526124f98282612378565b91505060808301518482036080860152612513828261243e565b9150508091505092915050565b600061252c838361249c565b905092915050565b6000602082019050919050565b600061254c82612225565b6125568185612230565b93508360208202850161256885612241565b8060005b858110156125a457848403895281516125858582612520565b945061259083612534565b925060208a0199505060018101905061256c565b50829750879550505050505092915050565b600060208201905081810360008301526125d08184612541565b905092915050565b600060208201905081810360008301526125f28184612128565b905092915050565b6003811061260757600080fd5b50565b600081359050612619816125fa565b92915050565b60008060006060848603121561263857612637611e62565b5b600084013567ffffffffffffffff81111561265657612655611e67565b5b61266286828701612018565b935050602061267386828701611eeb565b92505060406126848682870161260a565b9150509250925092565b60008115159050919050565b6126a38161268e565b82525050565b60006020820190506126be600083018461269a565b92915050565b6000806000606084860312156126dd576126dc611e62565b5b60006126eb86828701611eeb565b935050602084013567ffffffffffffffff81111561270c5761270b611e67565b5b61271886828701612018565b925050604084013567ffffffffffffffff81111561273957612738611e67565b5b61274586828701612018565b9150509250925092565b6000806040838503121561276657612765611e62565b5b600061277485828601611eb5565b925050602061278585828601611eeb565b9150509250929050565b600081519050919050565b600082825260208201905092915050565b6000819050602082019050919050565b600060608301600083015184820360008601526127d88282612262565b915050602083015184820360208601526127f28282612262565b915050604083015161280760408601826122aa565b508091505092915050565b600061281e83836127bb565b905092915050565b6000602082019050919050565b600061283e8261278f565b612848818561279a565b93508360208202850161285a856127ab565b8060005b8581101561289657848403895281516128778582612812565b945061288283612826565b925060208a0199505060018101905061285e565b50829750879550505050505092915050565b600060208201905081810360008301526128c28184612833565b905092915050565b600080604083850312156128e1576128e0611e62565b5b60006128ef85828601611eb5565b925050602061290085828601611eb5565b9150509250929050565b600082825260208201905092915050565b6000612926826122b9565b612930818561290a565b935083602082028501612942856122d5565b8060005b8581101561297e578484038952815161295f8582612357565b945061296a8361236b565b925060208a01995050600181019050612946565b50829750879550505050505092915050565b600060208201905081810360008301526129aa818461291b565b905092915050565b6000602082840312156129c8576129c7611e62565b5b600082013567ffffffffffffffff8111156129e6576129e5611e67565b5b6129f284828501612018565b91505092915050565b60008060408385031215612a1257612a11611e62565b5b6000612a2085828601611eb5565b925050602083013567ffffffffffffffff811115612a4157612a40611e67565b5b612a4d85828601612018565b9150509250929050565b6000602082019050612a6c60008301846121d8565b92915050565b7f446f63746f72206973206e6f7420617574686f72697a656420666f722074686960008201527f732070617469656e740000000000000000000000000000000000000000000000602082015250565b6000612ace6029836120ed565b9150612ad982612a72565b604082019050919050565b60006020820190508181036000830152612afd81612ac1565b9050919050565b7f5265636f726420646f6573206e6f742065786973747300000000000000000000600082015250565b6000612b3a6016836120ed565b9150612b4582612b04565b602082019050919050565b60006020820190508181036000830152612b6981612b2d565b9050919050565b7f4e487b7100000000000000000000000000000000000000000000000000000000600052603260045260246000fd5b7f4e487b7100000000000000000000000000000000000000000000000000000000600052602260045260246000fd5b60006002820490506001821680612be657607f821691505b602082108103612bf957612bf8612b9f565b5b50919050565b60008190508160005260206000209050919050565b60006020601f8301049050919050565b600082821b905092915050565b600060088302612c617fffffffffffffffffffffffffffffffffffffffffffffffffffffffffffffffff82612c24565b612c6b8683612c24565b95508019841693508086168417925050509392505050565b6000819050919050565b6000612ca8612ca3612c9e84611eca565b612c83565b611eca565b9050919050565b6000819050919050565b612cc283612c8d565b612cd6612cce82612caf565b848454612c31565b825550505050565b600090565b612ceb612cde565b612cf6818484612cb9565b505050565b5b81811015612d1a57612d0f600082612ce3565b600181019050612cfc565b5050565b601f821115612d5f57612d3081612bff565b612d3984612c14565b81016020851015612d48578190505b612d5c612d5485612c14565b830182612cfb565b50505b505050565b600082821c905092915050565b6000612d8260001984600802612d64565b1980831691505092915050565b6000612d9b8383612d71565b9150826002028217905092915050565b612db4826120e2565b67ffffffffffffffff811115612dcd57612dcc611f1b565b5b612dd78254612bce565b612de2828285612d1e565b600060209050601f831160018114612e155760008415612e03578287015190505b612e0d8582612d8f565b865550612e75565b601f198416612e2386612bff565b60005b82811015612e4b57848901518255600182019150602085019450602081019050612e26565b86831015612e685784890151612e64601f891682612d71565b8355505b6001600288020188555050505b505050505050565b612e8681611e8c565b82525050565b6000606082019050612ea16000830186612e7d565b612eae6020830185612e7d565b8181036040830152612ec08184612128565b9050949350505050565b7f446f63746f72206e6f7420726567697374657265640000000000000000000000600082015250565b6000612f006015836120ed565b9150612f0b82612eca565b602082019050919050565b60006020820190508181036000830152612f2f81612ef3565b9050919050565b7f50617469656e7420616c72656164792072656769737465726564000000000000600082015250565b6000612f6c601a836120ed565b9150612f7782612f36565b602082019050919050565b60006020820190508181036000830152612f9b81612f5f565b9050919050565b7f50617469656e74206e6f74207265676973746572656400000000000000000000600082015250565b6000612fd86016836120ed565b9150612fe382612fa2565b602082019050919050565b6000602082019050818103600083015261300781612fcb565b9050919050565b7f446f63746f7220697320616c726561647920617574686f72697a656420666f7260008201527f20746869732070617469656e7400000000000000000000000000000000000000602082015250565b600061306a602d836120ed565b91506130758261300e565b604082019050919050565b600060208201905081810360008301526130998161305d565b9050919050565b6000815490506130af81612bce565b9050919050565b8181036130c457505061319c565b6130cd826130a0565b67ffffffffffffffff8111156130e6576130e5611f1b565b5b6130f08254612bce565b6130fb828285612d1e565b6000601f83116001811461312a5760008415613118578287015490505b6131228582612d8f565b865550613195565b601f19841661313887612bff565b965061314386612bff565b60005b8281101561316b57848901548255600182019150600185019450602081019050613146565b868310156131885784890154613184601f891682612d71565b8355505b6001600288020188555050505b5050505050505b565b7f5265636f726420646f6573206e6f742065786973740000000000000000000000600082015250565b60006131d46015836120ed565b91506131df8261319e565b602082019050919050565b60006020820190508181036000830152613203816131c7565b9050919050565b600060808201905061321f6000830187612e7d565b81810360208301526132318186612128565b905081810360408301526132458185612128565b905061325460608301846121d8565b95945050505050565b7f4163636573732064656e69656400000000000000000000000000000000000000600082015250565b6000613293600d836120ed565b915061329e8261325d565b602082019050919050565b600060208201905081810360008301526132c281613286565b9050919050565b7f446f63746f7220616c7265616479207265676973746572656400000000000000600082015250565b60006132ff6019836120ed565b915061330a826132c9565b602082019050919050565b6000602082019050818103600083015261332e816132f2565b9050919050565b7f4e487b7100000000000000000000000000000000000000000000000000000000600052601160045260246000fd5b600061336f82611eca565b91507fffffffffffffffffffffffffffffffffffffffffffffffffffffffffffffffff82036133a1576133a0613335565b5b60018201905091905056fea26469706673582212202ca1ef532e93229013e93d84b5992a3d2711d69f997e40c436d26ffe59c58ab264736f6c634300081c0033",
  "linkReferences": {},
  "deployedLinkReferences": {}
}